:100000000C942A000C9447000C9447000C94470071
:100010000C9447000C9447000C9447000C94470044
:100020000C9447000C9447000C9447000C94470034
:100030000C9447000C9447000C9447000C94470024
:100040000C9447000C9447000C9447000C94470014
:100050000C94470011241FBECFE5D8E0DEBFCDBF12
:1000600011E0A0E6B0E0EEE4FCE102C005900D92E4
:10007000AE33B107D9F721E0AEE3B1E001C01D9284
:10008000A239B207E1F70E946A090C94250E0C947C
:100090000000BC0190E001C09F5FFB01E90FF11D72
:1000A00080818032C9F38D3219F49F5FA1E001C0D5
:1000B000A0E040E050E015C080ED820F8A3080F46F
:1000C00030E020533109FA01EE0FFF1F440F551F96
:1000D000440F551F440F551F4E0F5F1F420F531FF4
:1000E0009F5FFB01E90FF11D20812111E5CFA130B8
:1000F00019F4519541955109CA010895CF93DF93A1
:10010000FB01AC01407F5527529542954F70452722
:100110005F704527A42F682F6F70792F72957F70BD
:100120009C0122273F70832F90E3908398E5918371
:100130007A3020F4705D728393E007C07A3020F04B
:10014000795C728393E001C092E08A3040F4EF0161
:10015000C90FD11D80E3830F88839F5F09C08A3058
:1001600038F0EF01C90FD11D87E3830F88839F5FAC
:10017000AA3038F4DF01A90FB11D405D4C939F5F99
:1001800008C0AA3030F0DF01A90FB11D495C4C93C3
:100190009F5F6A3038F4DF01A90FB11D605D6C9379
:1001A0009F5F06C0DF01A90FB11D695C6C939F5F63
:1001B000E90FF11D1082DF91CF910895CF93DF9366
:1001C000FC01EB0180E3888382E4898370E082E0B4
:1001D00090E134C0492F092E000C550B9F01092EC8
:1001E00002C0369527950A94E2F7D901A170BB2782
:1001F00020FD0BC0415051099F0102C03695279543
:100200004A95E2F720FD03C003C071E001C071E030
:10021000713099F4AB2B49F0DE01A80FB11D87FDB9
:10022000BA9521E32C938F5F08C0DE01A80FB11DA2
:1002300087FDBA9520E32C938F5F9150992354F654
:10024000C80FD11D87FDDA951882DF91CF910895EF
:10025000CF93DF93CDB7DEB764970FB6F894DEBFC8
:100260000FBECDBFAC01FB01DC018C91803331F4BA
:1002700011968C91823421F030E003C030E001C04F
:1002800032E090E009C0A1E0B0E0AC0FBD1FA90FC3
:10029000B11D2C939F5F3F5FDA01A30FB11D37FDA6
:1002A000BA952C912111EFCF8FEF890F2DC0A1E0CE
:1002B000B0E0AC0FBD1FA80FB11D87FDBA959C9192
:1002C000913381F441E050E0022E02C0440F551FEB
:1002D0000A94E2F760817181462B572B518340834A
:1002E0002F5F11C041E050E0022E02C0440F551FA5
:1002F0000A94E2F740955095608171814623572317
:10030000518340832F5F815088238CF611C081E098
:1003100090E0022E02C0880F991F0A94E2F78095A0
:1003200090954081518184239523918380832F5F11
:1003300021316CF364960FB6F894DEBF0FBECDBFCB
:10034000DF91CF9108950F931F93CF93DF9300D048
:10035000CDB7DEB78B011A821982BE016F5F7F4F66
:100360000E942801B80189819A810E947E000F9025
:100370000F90DF91CF911F910F9108951F93CF930D
:10038000DF93CDB7DEB72A970FB6F894DEBF0FBE66
:10039000CDBFDC018C91803339F411968C9111978B
:1003A000883521F030E003C030E001C032E090E059
:1003B00009C0E1E0F0E0EC0FFD1FE90FF11D208323
:1003C0009F5F3F5FFD01E30FF11D37FDFA9520812F
:1003D0002111EFCFE1E0F0E0EC0FFD1FE90FF11D7F
:1003E00010828FEF890F10E040E050E0A0E0B0E015
:1003F00026C0E1E0F0E0EC0FFD1FE80FF11D87FDE6
:10040000FA959081913428F4492F50E040535109D6
:1004100006C0913420F0492F50E047535109212F55
:1004200030E0220F331F220F331FFA0102C0EE0FFC
:10043000FF1F2A95E2F7AE2BBF2B1F5F8150882349
:10044000C4F6FB01B183A0832A960FB6F894DEBFF1
:100450000FBECDBFDF91CF911F9108950F931F93D2
:10046000CF93DF9300D0CDB7DEB78B011A8219820C
:10047000BE016F5F7F4F0E94BE01B80189819A81E2
:100480000E94DE000F900F90DF91CF911F910F918E
:10049000089540E060E080E00E940B076FE870E0A4
:1004A00080E00E94E80840E061E080E00E940B07E5
:1004B00061E870E080E00E94E80840E062E080E0EF
:1004C0000E940B0764E770E080E00E94E80840E0CB
:1004D00063E080E00E940B0762E670E080E00E942B
:1004E000E8080895CF93DF93CDB7DEB7EB970FB64B
:1004F000F894DEBF0FBECDBF85E1E3EAF0E0DE0198
:10050000119601900D928A95E1F784E1E8EBF0E015
:10051000DE01569601900D928A95E1F782E1ECECAE
:10052000F0E0DE019A9601900D928A95E1F70E9423
:100530007904809361009FEC980F933008F094C089
:10054000909160009D7F946090936000823369F188
:10055000833309F45AC0813309F086C08093730154
:1005600062E080E00E94510963E080E00E9451094E
:100570002FE789EA93E0215080409040E1F700C0E6
:10058000000080E00E94390940E060E080E00E94C5
:100590000B07BE016F5F7F4F80E00E94E80841E0DB
:1005A00061E080E00E940B075FC082E380937301EB
:1005B00061E080E00E94510963E080E00E945109FF
:1005C0002FE789EA93E0215080409040E1F700C096
:1005D000000080E00E94390940E060E080E00E9475
:1005E0000B07BE016A5E7F4F80E00E94E80841E091
:1005F00061E080E00E940B0760E380E00E943C071E
:1006000062E480E00E943C072FC083E38093730183
:1006100061E080E00E94510962E380E00E9451099C
:100620002FE789EA93E0215080409040E1F700C035
:10063000000080E00E94390940E060E080E00E9414
:100640000B07BE01665D7F4F80E00E94E80841E035
:1006500061E080E00E940B0760E380E00E943C07BD
:1006600068E580E00E943C07EB960FB6F894DEBF89
:100670000FBECDBFDF91CF9108950E947904809382
:1006800061008E34D1F190ED980F9A3088F4682F84
:1006900080E00E943C0780913E01E82FF0E0E15AA3
:1006A000FE4F9091610090838F5F80933E0125C043
:1006B0009FEB980F953088F4682F80E00E943C07EC
:1006C00080913E01E82FF0E0E15AFE4F90916100E9
:1006D00090838F5F80933E0110C0833671F4E09168
:1006E0003E01F0E0E15AFE4F108210923E018091EF
:1006F00060008B7F8860809360008EE10E94010C17
:10070000811113C066E40E943C0780913E01E82FEE
:10071000F0E0E15AFE4F96E490838F5F80933E01B4
:100720008EE10E94010C8823D9F308958091730112
:10073000823379F1833309F455C0813309F07AC0EB
:100740008FE591E00E94490090935E0180935D01E6
:1007500069E471E00E94DE006FE371E080915D0169
:1007600090915E010E947E0041E062E080E00E9484
:100770000B0769E471E080E00E94E80841E063E073
:1007800080E00E940B076FE371E080E00E94E808C0
:1007900008956DE571E08FE591E00E9428016FE317
:1007A00071E08FE591E00E94A30141E062E080E00A
:1007B0000E940B0760915D0170915E0180E090E006
:1007C0000E94C00CAB01BC0180E00E94030941E023
:1007D00063E080E00E940B076FE371E080E00E941D
:1007E000E80808956DE571E08FE591E00E94BE0193
:1007F00069E471E08FE591E00E942E0241E062E041
:1008000080E00E940B0760915D0170915E0180E0C5
:1008100090E00E94C00CAB01BC0180E00E94030983
:1008200041E063E080E00E940B0769E471E080E052
:100830000E94E808089508958091600080FF08C034
:100840000E944902809160008E7F826080936000E8
:100850008091600081FD0E9472028091600082FFA1
:1008600003C00E943D03089583FF08C00E949603C1
:1008700080916000877F806180936000809160003C
:1008800084FF0FC00E947904809361008E3449F088
:1008900080E00E943909809160008F7E81608093A2
:1008A00060000895CF93DF931F92CDB7DEB7BE01EE
:1008B0006F5F7F4F0E946F0B811104C0898181306F
:1008C00019F403C082E001C080E00F90DF91CF9166
:1008D0000895CF93C0E009C0EC2FF0E0EE5FFE4F2B
:1008E00061E080810E94820ACF5FC430A8F3CF917B
:1008F0000895BF92CF92DF92EF92FF920F931F93D2
:10090000CF93DF930F2EFEE4BF2EF02DD12C3BC0F2
:10091000ED2CF12CF701EE5FFE4FC08060E08C2DD6
:100920000E94820AD0E028C00D2F10E0F801E250AA
:10093000FF4FC0818C2F0E94520481111CC0C7013F
:10094000880F991F880F991F8A5F9E4FFC01E00F47
:10095000F11FB0808FE097E20197F1F700C000002F
:100960008C2F0E9452048823D9F38FE097E20197DD
:10097000F1F700C00000DF5FD430B0F261E08C2DF1
:100980000E94820AD39493E09D1510F68B2DDF917F
:10099000CF911F910F91FF90EF90DF90CF90BF907C
:1009A00008951F93CF93DF93162F90E0FC01EE0F75
:1009B000FF1F9C01220F331F220F331F220F331FF3
:1009C000E20FF31FEC58FE4F22812130F1F4EF01CA
:1009D00060E080810E94820A612F8B810E94EB0B74
:1009E00061E089810E94820A8FEC97E00197F1F71C
:1009F00000C0000060E089810E94820A8FEC97E0CD
:100A00000197F1F700C000006BC0211169C0EC0133
:100A1000CC0FDD1F880F991F880F991F880F991F12
:100A2000C80FD91FCC58DE4F60E088810E94820A2F
:100A3000612F661F6627661F8F810E94820A16FB40
:100A4000662760F98E810E94820A15FB662760F98D
:100A50008D810E94820A14FB662760F98C810E94B6
:100A6000820A61E089810E94820A8FEC97E00197F7
:100A7000F1F700C0000060E089810E94820A8FECDB
:100A800097E00197F1F700C0000013FB662760F9BB
:100A90008F810E94820A12FB662760F98E810E9474
:100AA000820A11FB662760F98D810E94820A612FFC
:100AB00061708C810E94820A61E089810E94820AB1
:100AC0008FEC97E00197F1F700C0000060E08981AA
:100AD0000E94820A8FEC97E00197F1F700C00000B6
:100AE000DF91CF911F9108951F93CF93DF93162F1E
:100AF00090E0FC01EE0FFF1F9C01220F331F220F1D
:100B0000331F220F331FE20FF31FEC58FE4F2281D9
:100B10002130F1F4EF0161E080810E94820A612FAF
:100B20008B810E94EB0B61E089810E94820A8FEC2D
:100B300097E00197F1F700C0000060E089810E9412
:100B4000820A8FEC97E00197F1F700C000006BC0BC
:100B5000211169C0EC01CC0FDD1F880F991F880F90
:100B6000991F880F991FC80FD91FCC58DE4F61E01D
:100B700088810E94820A612F661F6627661F8F8107
:100B80000E94820A16FB662760F98E810E94820A03
:100B900015FB662760F98D810E94820A14FB662787
:100BA00060F98C810E94820A61E089810E94820A38
:100BB0008FEC97E00197F1F700C0000060E08981B9
:100BC0000E94820A8FEC97E00197F1F700C00000C5
:100BD00013FB662760F98F810E94820A12FB662749
:100BE00060F98E810E94820A11FB662760F98D816F
:100BF0000E94820A612F61708C810E94820A61E0EA
:100C000089810E94820A8FEC97E00197F1F700C07A
:100C1000000060E089810E94820A8FEC97E00197D2
:100C2000F1F700C00000DF91CF911F91089540E0DF
:100C300064C0842F90E0FC01EE0FFF1F9C01220F87
:100C4000331F220F331F220F331FE20FF31FEC5805
:100C5000FE4F10861186FC01E65CFE4F208121309C
:100C6000E9F4DC01AA0FBB1FFC01EE0FFF1FEE0F22
:100C7000FF1FEE0FFF1FEA0FFB1FEC58FE4F2283F2
:100C8000A80FB91FAF5CBE4F8C91808311968C91D9
:100C90001197818312968C9183832EC021112CC0D1
:100CA000FC01EE0FFF1FDC01AA0FBB1FAA0FBB1F29
:100CB000AA0FBB1FAE0FBF1FAC58BE4F12961C929F
:100CC0001297E80FF91FEE0FFF1FE15EFE4F8081C4
:100CD0008C93818111968C931197828114968C93B9
:100CE0001497838115968C931597848116968C930F
:100CF0001697858117968C934F5F8091A2004817B5
:100D000008F497CF08950F931F93CF930E9417066F
:100D10002FE788E391E0215080409040E1F700C048
:100D20000000C0E06FC00C2F10E0F801EE0FFF1FB5
:100D3000C801880F991F880F991F880F991FE80F06
:100D4000F91FEC58FE4F8281813059F5F801EA5EB7
:100D5000FE4F8081882319F0813031F009C068E3AB
:100D60008C2F0E94D10404C06CE38C2F0E94D1040C
:100D7000F801E45EFE4F60818C2F0E94D10461E097
:100D80008C2F0E94D1048FEC97E00197F1F700C0FF
:100D90000000F801E75EFE4F60818C2F0E94D104B5
:100DA00030C081112EC062E08C2F0E94D104F80166
:100DB000EA5EFE4F8081882319F0813031F009C04E
:100DC00068E28C2F0E94D10404C06CE28C2F0E9438
:100DD000D104F801E45EFE4F60818C2F0E94D104A3
:100DE00061E08C2F0E94D1048FEC97E00197F1F71E
:100DF00000C00000F801E75EFE4F60818C2F0E946A
:100E0000D104CF5F8091A200C81708F48CCFCF9196
:100E10001F910F910895282F30E0F901EE0FFF1F69
:100E2000220F331F220F331F220F331FE20FF31F36
:100E3000EC58FE4F60874187613059F028F06230EE
:100E400069F0633091F00895642F60680E94D104C6
:100E50000895642F606C0E94D10408956091A000F1
:100E6000640F60680E94D10408956091A000640F2F
:100E7000606C0E94D1040895CF93C82F0E9474051E
:100E80008C2F90E0FC01EE0FFF1F880F991F880F39
:100E9000991F880F991FE80FF91FEC58FE4F8185A5
:100EA0008F5F8187CF9108951F93CF93DF93182F82
:100EB0000E947405C12FD0E0FE01EE0FFF1FCE018E
:100EC000880F991F880F991F880F991FE80FF91F26
:100ED000EC58FE4F81858F5F8187843138F1CE01D8
:100EE000880F991F880F991F880F991FFE01EE0F19
:100EF000FF1FE80FF91FEC58FE4F8085811116C0C7
:100F000040E061E0812F0E940B07CE01880F991FFE
:100F1000880F991F880F991FFE01EE0FFF1FE80F22
:100F2000F91FEC58FE4F81E080871186CE01880FB3
:100F3000991F880F991F880F991FFE01EE0FFF1F41
:100F4000E80FF91FEC58FE4F8185843138F1CE014E
:100F5000880F991F880F991F880F991FFE01EE0FA8
:100F6000FF1FE80FF91FEC58FE4F80858130B1F468
:100F700040E062E0812F0E940B07CE01880F991F8D
:100F8000880F991F880F991FFE01EE0FFF1FE80FB2
:100F9000F91FEC58FE4F82E080871186CE01880F42
:100FA000991F880F991F880F991FFE01EE0FFF1FD1
:100FB000E80FF91FEC58FE4F8185843138F1CE01DE
:100FC000880F991F880F991F880F991FFE01EE0F38
:100FD000FF1FE80FF91FEC58FE4F80858230B1F4F7
:100FE00040E063E0812F0E940B07CE01880F991F1C
:100FF000880F991F880F991FFE01EE0FFF1FE80F42
:10100000F91FEC58FE4F83E080871186CE01880FD0
:10101000991F880F991F880F991FFE01EE0FFF1F60
:10102000E80FF91FEC58FE4F8185843128F1CE017D
:10103000880F991F880F991F880F991FFE01EE0FC7
:10104000FF1FE80FF91FEC58FE4F80858330A1F495
:1010500040E060E0812F0E940B07CE01880F991FAE
:10106000CC0FDD1FCC0FDD1FCC0FDD1FC80FD91F2C
:10107000CC58DE4F18861986DF91CF911F910895C5
:10108000CF92DF92EF92FF920F931F93CF93DF9354
:10109000CDB7DEB760970FB6F894DEBF0FBECDBFF9
:1010A000082F6A017B01411551056105710521F485
:1010B00060E30E9454073CC077235CF46DE20E9419
:1010C0005407F094E094D094C094C11CD11CE11C4E
:1010D000F11C10E015C0C701B6012AE030E040E085
:1010E00050E00E94E40DE1E0F0E0EC0FFD1FE10FA5
:1010F000F11D605D6083C22ED32EE42EF52E1F5F9E
:10110000C114D104E104F10431F7FF24FA94F10E83
:101110000DC0E1E0F0E0EC0FFD1FEF0DF11DF7FC5D
:10112000FA956081802F0E945407FA94FF208CF773
:1011300060960FB6F894DEBF0FBECDBFDF91CF91A2
:101140001F910F91FF90EF90DF90CF900895CF9275
:10115000DF92EF92FF92CF93C82F6A017B01CB0100
:10116000BA010E948A0CAB01BC018C2F0E9440087E
:1011700020E030E0A901C701B6010E94850C882358
:1011800024F4F7FAF094F7F8F0946EE28C2F0E94B2
:101190005407C701B6010E948A0C0E94C20C9B0131
:1011A000AC01C701B6010E94180C20E030E048EC09
:1011B00052E40E94770D0E948A0CAB01BC018C2F77
:1011C0000E944008CF91FF90EF90DF90CF9008955C
:1011D0000F931F93CF93DF936115710531F40EC008
:1011E0008D2F0E945407CF5F03C08B01D82FC0E022
:1011F000F801EC0FF11D60816111F2CFDF91CF9109
:101200001F910F9108958F929F92AF92BF92CF92AC
:10121000DF92EF92FF92CF93C82F6A017B01CB013F
:10122000BA010E94910C4B015C010E94C00C9B0111
:10123000AC01C701B6010E94180C20E030E0A90102
:101240000E94720D181634F4B701A6018C2F0E946B
:10125000A70805C0B501A4018C2F0E944008CF91BA
:10126000FF90EF90DF90CF90BF90AF909F908F90C6
:101270000895CF93C82F61E00E94D1048C2F90E095
:10128000FC01EE0FFF1F880F991F880F991F880F11
:10129000991FE80FF91FEC58FE4F10861186CF9169
:1012A00008951F93CF93DF93D82F162FC0E00AC065
:1012B0004C2F612F8D2F0E940B0760E28D2F0E9413
:1012C0005407CF5F8091A100C81790F3DF91CF91B1
:1012D0001F9108950E94720A0E9483060E94690469
:1012E0000E941B040E941C04FDCF982F9695969592
:1012F00096958770613009F455C020F0623009F48A
:10130000A1C008959130C1F028F0923039F19330A6
:10131000B9F108954AB321E030E0B90102C0660F87
:10132000771F8A95E2F7CB01942F982B9ABB9BB33A
:10133000809589238BBB089547B321E030E0B90144
:1013400002C0660F771F8A95E2F7CB01942F982B86
:1013500097BB98B38095892388BB089544B321E057
:1013600030E0B90102C0660F771F8A95E2F7CB0122
:10137000942F982B94BB95B38095892385BB0895B2
:1013800041B321E030E0B90102C0660F771F8A95B2
:10139000E2F7CB01942F982B91BB92B380958923D0
:1013A00082BB08959130C1F028F0923039F193302A
:1013B000B9F108954AB321E030E0B90102C0660FE7
:1013C000771F8A95E2F7CB018095942F98239ABBDB
:1013D0009BB389238BBB089547B321E030E0B9016B
:1013E00002C0660F771F8A95E2F7CB018095942F94
:1013F000982397BB98B3892388BB089544B321E011
:1014000030E0B90102C0660F771F8A95E2F7CB0181
:101410008095942F982394BB95B3892385BB089519
:1014200041B321E030E0B90102C0660F771F8A9511
:10143000E2F7CB018095942F982391BB92B3892337
:1014400082BB08959130C1F028F0923039F1933089
:10145000B9F108954AB321E030E0B90102C0660F46
:10146000771F8A95E2F7CB01962F909594239ABB2C
:101470009BB3892B8BBB089547B321E030E0B901C2
:1014800002C0660F771F8A95E2F7CB01962F9095E1
:10149000942397BB98B3892B88BB089544B321E06C
:1014A00030E0B90102C0660F771F8A95E2F7CB01E1
:1014B000962F9095942394BB95B3892B85BB089563
:1014C00041B321E030E0B90102C0660F771F8A9571
:1014D000E2F7CB01962F9095942391BB92B3892B81
:1014E00082BB0895CF93C0E009C0EC2FF0E0E25238
:1014F000FF4F60818C2F0E947509CF5FC032A8F327
:10150000CF910895982F969596959695282F2770A8
:10151000803208F0CCC0662309F464C0613009F061
:10152000C8C09130E9F030F0923081F1933009F485
:1015300043C0C1C08AB390E0022E02C09595879542
:101540000A94E2F780FFB9C03BB381E090E002C0AB
:10155000880F991F2A95E2F7832B8BBB80E00895B3
:1015600087B390E0022E02C0959587950A94E2F722
:1015700080FFA5C038B381E090E002C0880F991FBA
:101580002A95E2F7832B88BB80E0089584B390E02E
:10159000022E02C0959587950A94E2F780FF91C0CC
:1015A00035B381E090E002C0880F991F2A95E2F7D9
:1015B000832B85BB80E0089581B390E0022E02C0AA
:1015C000959587950A94E2F780FF7DC032B381E05C
:1015D00090E002C0880F991F2A95E2F7832B82BB07
:1015E00080E008959130F1F030F0923091F1933035
:1015F00009F446C06AC08AB390E0022E02C09595F5
:1016000087950A94E2F780FF62C03BB381E090E0E7
:1016100002C0880F991F2A95E2F7809583238BBB20
:1016200080E0089587B390E0022E02C095958795DB
:101630000A94E2F780FF4DC038B381E090E002C029
:10164000880F991F2A95E2F78095832388BB80E055
:10165000089584B390E0022E02C0959587950A9470
:10166000E2F780FF38C035B381E090E002C0880F18
:10167000991F2A95E2F78095832385BB80E0089522
:1016800081B390E0022E02C0959587950A94E2F707
:1016900080FF23C032B381E090E002C0880F991F21
:1016A0002A95E2F78095832382BB80E0089582E04B
:1016B000089585E0089580E0089583E0089583E02B
:1016C000089583E0089583E0089580E0089583E01D
:1016D000089583E0089583E0089583E00895982FA6
:1016E000969596959695282F2770803208F065C0BC
:1016F0006115710509F463C09130E9F030F0923062
:1017000081F1933009F443C05CC08AB390E0022EAB
:1017100002C0959587950A94E2F780FD54C089B37D
:1017200090E002C0959587952A95E2F78170FB01BC
:10173000808380E0089587B390E0022E02C09595E3
:1017400087950A94E2F780FD40C086B390E002C01E
:10175000959587952A95E2F78170FB01808380E05B
:10176000089584B390E0022E02C0959587950A945F
:10177000E2F780FD2CC083B390E002C09595879579
:101780002A95E2F78170FB01808380E0089581B3A0
:1017900090E0022E02C0959587950A94E2F780FDAD
:1017A00018C080B390E002C0959587952A95E2F71E
:1017B0008170FB01808380E0089582E0089584E0D9
:1017C000089580E0089583E0089583E0089583E01C
:1017D000089583E00895813049F028F0823049F07F
:1017E000833051F00CC06BBB80E0089568BB80E093
:1017F000089565BB80E0089562BB80E0089581E0B4
:101800000895CF93DF931F92CDB7DEB7BE016F5F10
:101810007F4F0E946F0B811104C08981813019F4C0
:1018200003C082E001C080E00F90DF91CF91089566
:101830005058BB27AA270E94300C0C94380D0E94E8
:101840002A0D38F00E94310D20F039F49F3F19F431
:1018500026F40C94270D0EF4E095E7FB0C94210D73
:10186000E92F0E94490D58F3BA17620773078407DE
:10187000950720F079F4A6F50C946B0D0EF4E09525
:101880000B2EBA2FA02D0B01B90190010C01CA013A
:10189000A0011124FF27591B99F0593F50F4503EE5
:1018A00068F11A16F040A22F232F342F4427585FD7
:1018B000F3CF469537952795A795F0405395C9F7EF
:1018C0007EF41F16BA0B620B730B840BBAF09150A7
:1018D000A1F0FF0FBB1F661F771F881FC2F70EC046
:1018E000BA0F621F731F841F48F487957795679519
:1018F000B795F7959E3F08F0B0CF9395880F08F005
:101900009927EE0F9795879508950E94FD0C08F48E
:1019100081E008950E94910C6894B1110C946C0DB3
:1019200008950E94510D88F09F5798F0B92F99277C
:10193000B751B0F0E1F0660F771F881F991F1AF0BA
:10194000BA95C9F714C0B13091F00E946B0DB1E0A7
:1019500008950C946B0D672F782F8827B85F39F0A6
:10196000B93FCCF3869577956795B395D9F73EF453
:1019700090958095709561957F4F8F4F9F4F0895FB
:10198000E89409C097FB3EF4909580957095619519
:101990007F4F8F4F9F4F9923A9F0F92F96E9BB27CF
:1019A0009395F695879577956795B795F111F8CF4B
:1019B000FAF4BB0F11F460FF1BC06F5F7F4F8F4FB6
:1019C0009F4F16C0882311F096E911C0772321F0AC
:1019D0009EE8872F762F05C0662371F096E8862F44
:1019E00070E060E02AF09A95660F771F881FDAF79B
:1019F000880F9695879597F90895990F0008550FC8
:101A0000AA0BE0E8FEEF16161706E807F907C0F084
:101A100012161306E407F50798F0621B730B840B8C
:101A2000950B39F40A2661F0232B242B252B21F466
:101A300008950A2609F4A140A6958FEF811D811D06
:101A4000089597F99F6780E870E060E008959FEF40
:101A500080EC089500240A94161617061806090645
:101A6000089500240A941216130614060506089514
:101A7000092E0394000C11F4882352F0BB0F40F49C
:101A8000BF2B11F460FF04C06F5F7F4F8F4F9F4FDC
:101A9000089557FD9058440F551F59F05F3F71F05E
:101AA0004795880F97FB991F61F09F3F79F08795C5
:101AB0000895121613061406551FF2CF4695F1DF4E
:101AC00008C0161617061806991FF1CF86957105DE
:101AD000610508940895E894BB2766277727CB0112
:101AE00097F908950E94FD0C08F48FEF08950E9465
:101AF0008A0D0C94380D0E942A0D38F00E94310D89
:101B000020F0952311F00C94210D0C94270D112435
:101B10000C946C0D0E94490D70F3959FC1F3950FC5
:101B200050E0551F629FF001729FBB27F00DB11D61
:101B3000639FAA27F00DB11DAA1F649F6627B00DF1
:101B4000A11D661F829F2227B00DA11D621F739FDA
:101B5000B00DA11D621F839FA00D611D221F749FE8
:101B60003327A00D611D231F849F600D211D822F2F
:101B7000762F6A2F11249F5750409AF0F1F0882356
:101B80004AF0EE0FFF1FBB1F661F771F881F915083
:101B90005040A9F79E3F510580F00C94210D0C9404
:101BA0006C0D5F3FE4F3983ED4F386957795679587
:101BB000B795F795E7959F5FC1F7FE2B880F911DAD
:101BC0009695879597F90895052E97FB1EF4009436
:101BD0000E94FB0D57FD07D00E94030E07FC03D0A7
:101BE0004EF40C94FB0D50954095309521953F4F48
:101BF0004F4F5F4F089590958095709561957F4FF9
:101C00008F4F9F4F0895A1E21A2EAA1BBB1BFD0107
:101C10000DC0AA1FBB1FEE1FFF1FA217B307E407CB
:101C2000F50720F0A21BB30BE40BF50B661F771F23
:101C3000881F991F1A9469F7609570958095909503
:0E1C40009B01AC01BD01CF010895F894FFCFC8
:101C4E00014E20332E48657861646563696D616C61
:101C5E002E2E200020322E42696E6172792E2E2099
:101C6E000020312E446563696D616C2E2E2000209C
:101C7E00436F6E766572742046726F6D203A200047
:101C8E00141403456E74657220446563696D616C4E
:101C9E00204E756D62657200456E746572204269E4
:101CAE006E617279204E756D62657200456E746557
:101CBE00722048657861204E756D62657200000075
:101CCE000000000000000000000000000000000006
:101CDE0000000000000002020202020202001A1BB3
:101CEE001C1D0C0D0E0F373839413435364231324A
:101CFE003343633045440000000606060C0C0C010D
:101D0E00020304050610111415161704051C1D1EDA
:0E1D1E001F0001010203031213010000010067
:00000001FF
